S0100000646F5F616E5F5654322E733337A8
S214012000C00A0020BD3F0100873A0300873A03005B
S2140120100D510300873A0300873A0300873A03000D
S214012020873A0300873A0300873A0300873A03009A
S214012030873A030054FE03001F530300873A030048
S214012040873A0300873A0300873A0300873A03007A
S214012050873A0300873A0300873A0300873A03006A
S214012060873A0300873A0300AD950100593A01000B
S214012070AF390300873A0300873A0300873A030023
S214012080873A0300873A0300873A0300873A03003A
S214012090873A030021490100873A0300873A030083
S2140120A0873A0300D54A0100B54A0100873A030082
S2140120B0873A0300873A0300873A03004114030076
S2140120C0A3DE03009FDE0300D50B0300AFDE030093
S2140120D0A7DE030005140300ABDE030039F102009E
S2140120E081140300873A0300873A0300873A030006
S2140120F0873A0300873A0300873A0300873A0300CA
S214012100873A0300873A0300873A0300873A0300B9
S214012110873A0300873A0300873A0300873A0300A9
S214012120873A0300873A0300873A0300873A030099
S208012130873A0300E1
S214012134F0B5114A114C124E00F00105E3695F0730
S21401214413D40DB9334213D103EA00078F4207D1E2
S2140121540B4A1A40002A0CBF00206FF00100F0BDA4
S214012164013AEBD16FF00200F9E74FF0FF30F6E7E2
S2140121746FF00100F3E700BF80969800000003505B
S214012184020001000B4B70B5D96911F480310DD1F1
S21401219401244FF48072084E084DF46020462C64E6
S2140121A41A61FFF7C5FF3464EC6070BD6FF001007F
S2140121B4FBE700BF0000035000100350002003504B
S2140121C438B541F6713301220C4C0021E569E3630D
S2140121D40B4B05F48035DA6002236061212023610C
S2140121E4FFF7A6FF10B92120FFF7A2FF0122054B36
S2140121F4DA600DB10023E36338BD00BF000003506D
S214012204001003500020035070B5134C6061E3695D
S2140122145B071ED40E4656F8043B8D18A361AE42E6
S2140122240BD10423002121202361FFF781FF58B934
S214012234BDE870402120FFF77BBF08210846FFF761
S21401224477FF10B10423236170BD56F8043BA361E4
S214012254E5E74FF0FF30F7E7000003502DE9F843B8
S214012264154641F67132164B8946DF69DA63012257
S214012274064603F58053DFF8508007F48037DA60AA
S21401228455B9284601220F4BDA601FB10022A3F587
S2140122940053DA63BDE8F88306F5005404EA08043B
S2140122A4A41BAC4228BF2C46494622463046FFF7BB
S2140122B4ABFF0028E6D12644A1442D1BE0E700BF6E
S2140122C4000003500020035000E0FFFF0000000060
S2140122E0013800D0FCE7704773B506222C49054635
S2140122F02BF08AFEE0B9A81D2BF0EFFD632847DD21
S214012300284C206021F05CFB21F05BFB264B226809
S2140123102649186822F08AFC254B2068D3ED000A6E
S214012320244B93ED000A02B0BDE8704000F090BB6C
S2140123300822284620492BF067FE044640BB05F1DB
S21401234008002BF0CAFD1F2822DD1C4A1678FF2E36
S2140123501ED01B4D28601FF03DFB0FA3D3E90023C1
S2140123601FF0BCF81FF0A0FB23460246014600946E
S214012370304611F007FA21F023FB21F022FB0A4B2D
S2140123802A681049186802B0BDE8704022F04EBCB9
S21401239002B070BDAFF300809A9999999999F93F67
S2140123A068EF030004330020E40E00206FEF030003
S2140123B0B00D0020B40D002092EF0300563500202A
S2140123C0003300209BEF030003685F4A23F47F433A
S2140123D023F00703934273B561D002F1FD7202F553
S2140123E08032934263D002F17D42934240F0908066
S2140123F0564D574E21F0E4FA21F0E3FA5549286884
S21401240022F014FC304611F0A5F9044608B35249EF
S214012410286822F00BFC5149286822F007FC21F0BD
S214012420CFFA21F0CEFA4E4B4E4A00934E498823FE
S214012430286822F0FBFB4D4923464D4A286822F0C6
S214012440F5FB204601F052FC4A49286822F0EEFBD3
S214012450FEE7494B18681FF0ADFA39A3D3E900230C
S2140124601FF03CF81FF020FB00940246234601466D
S214012470307811F087F9DFED410A414BB0EE600A82
S214012480009340F2FF22022306213E4800F076FB2D
S21401249031783C4802B0BDE8704000F0D3BB022161
S2140124A02B4B187802B0BDE8704011F0A3B9436811
S2140124B09B062DD5344D354A2B780133DBB2042BE0
S2140124C028BF00232B70D35C03F0C002802A31D0D2
S2140124D020D82AB3402A27D000232D4C236021F090
S2140124E06FFA21F06EFA194823682A78294900689C
S2140124F022F09CFB284B2068D3ED000A274B93ED76
S214012500000A00F0A5FA236813B10022244B1A60D2
S21401251002B070BDC02ADFD1224A23F0C00307E013
S214012520642213FB02F3D8E74FF47A7223F0C00358
S2140125305343D2E742F2107223F0C003F8E700BF1C
S2140125409A9999999999F93FA0000601E40E0020FD
S214012550563500203FF0030039F4030054F0030021
S214012560E8F0030059F0030062F0030071F0030085
S2140125706EF0030086F00300003300200000000028
S21401258097F003001B280020D9270020F7F003004E
S214012590043300209FF00300B00D0020B40D00208E
S2140125A0B80D0020C0270900002370B5404C054631
S2140125B08AB0E36318B1008823600DF09FFA3D48A6
S2140125C02AF0A5FF3C4E3D4B304633603C4B7360D2
S2140125D026F08FFC0021304618F028FA32A3D3E902
S2140125E00023A062C4E9062326F08EFCD4E9062364
S2140125F019431043C4E90601CDE900014FF0FF334A
S2140126004FF0FF32A06A2AF0D6FF02224FF0FF31C8
S214012610A06A2AF0D5FF01200CF0CCFE4FF400731F
S21401262000222849A06A2BF01CF8B0F5007F38D1AB
S21401263000239422CDE9073309933C23CDE90332E5
S21401264005939623A06A03A9069318F0D7FA35B323
S214012650287C0DF0F3FA0546F0B9A06A2BF0DDF8F8
S2140126600DF09AFA0CF088FE20B14FF4807000212C
S21401267009F010FF0CF090FE20B14FF4006000212D
S21401268009F008FF26F066FD012018F025FA0E4A2B
S2140126900E49A06A26F02BFC28460AB070BDFF2022
S2140126A0D7E70725F8E700BF0DD501552000000044
S2140126B0300B0020690345ECC01F002039F20100F1
S2140126C0D01F0020C01D0020978E0300D78E030068
S2140126D00348044B834202D0034B03B118477047AB
S2140126E0803500208035002000000000064B074999
S2140126F0C91A891048BF0131491003D0044B0BB1E8
S21401270001481847704700BF8035002080350020FB
S2140127100000000010B5064C237843B9FFF7D8FF38
S214012720044B13B10448AFF300800123237010BD9E
S214012730D8270020000000002C2F040008B5054B08
S2140127401BB105490548AFF30080BDE80840FFF717
S214012750CDBF00BF00000000980D00202C2F040004
S214012760A3F5803A704700BF174B002B08BF134BE9
S2140127709D46FFF7F5FF00218B460F461348144A86
S214012780121A2BF039FC0E4B002B00D098470D4B3C
S214012790002B00D098470020002104000D000D48B2
S2140127A0002802D00C48AFF300801FF0C9FD2000BE
S2140127B0290021F091F81FF027FB00BF0000080058
S2140127C00000000000000000C00A0020C00A00202F
S2140127D060310020000000000000000010B5044633
S2140127E021F082F9012807D1044B9C4204D1BDE8AF
S2140127F01040202010F08ABF10BD00BF80FD0300EE
S21401280037B511480122006801AB0DF1030122F032
S214012810D3F980B9019B73B19DF803200B4C0A2AAA
S214012820237801D00D2A08D12BB100250848C554BC
S214012830FFF75AFD257003B030BD3E2B9FBF591CD4
S21401284021700349CA54F6E734330020DA27002002
S214012850DB27002010B51C4C21F0B2F821F0B1F8AE
S2140128601A49206822F0E2F921F0AAF821F0A9F825
S2140128701749206822F0DAF921F0A2F821F0A1F830
S2140128801449206822F0D2F900F0B6F8DFED120AFA
S214012890124BB0EE600A186800F0DAF800F06AFA37
S2140128A060B921F08DF821F08CF80D49206822F0EE
S2140128B0BDF9BDE810400B4821F068B921F080F859
S2140128C021F07FF80849F1E7E40E0020BFEF03008E
S2140128D0E9EF0300C0EF030000000000043300200E
S2140128E00BF0030080FD030024F0030070B52DED0E
S2140128F0048B374D84B0FFF783FF2B68002B5AD02B
S21401290022F0ADFC0446334E3068201A06F002FD74
S2140129102B6883424FD8002303A902A83460029390
S214012920039300F0FDFA2C4C002848D19DED028A55
S214012930DDED038ABDEEC89A284BFDEEE89A83EDDD
S214012940008A274BC3ED008A21F03AF821F039F8C6
S214012950F8EEC97A38EE678ADFED227A28EE278A02
S214012960BDEEC87A17EE103AB8EEE97A78EEC78A65
S21401297068EEA78AFDEEE88ACDED009ACDED018AD4
S214012980002BB8BF5B42184919EE102A206822F0C6
S2140129904DF9DDED030A9DED020A286800F058F8AE
S2140129A0124B1978FF2906D0DDED030A9DED020AC8
S2140129B00F4800F067F904B0BDEC048B70BD20F041
S2140129C0FFFF20F0FEFF0B49206822F02FF9F2E707
S2140129D004330020B80D0020E40E0020B40D0020C2
S2140129E0B00D00200000C842BEF00300563500209E
S2140129F01B280020D8F0030030B5124C85B020F01B
S214012A00F5FF002000F04AFC204600F0AFFC002550
S214012A106FF07F432046C4E9013520F0A1FD204632
S214012A20094920F001FF012302222046CDE9015386
S214012A300649009520F00BFF05B0BDE8304000F0D8
S214012A4055BC00BFBC0D002040F40300FBF00300A2
S214012A5070B52DED048B04468EB03F48B0EE408A2B
S214012A60F0EE608A20F07CFD002C5CD13B4904A886
S214012A702BF0F2FA0024012504A92B460222CDE907
S214012A8001450094344820F0E2FE2B460422CDE9AD
S214012A90014533490094304820F0D9FEFDEEC87A4E
S214012AA0B8EEE77ADFED2F9A38EE478A28EE298AC4
S214012AB0BDEEC88A18EE103A0526BDEEE89A002B40
S214012AC0B8BF5B420093282117EE903A264A04A825
S214012AD01FF08CFB234604A90622CDE9014500968A
S214012AE01D4820F0B4FEF8EEC97A78EEE78A68EE63
S214012AF0A98AFDEEE88A19EE103ACDED008A282162
S214012B001A4A04A81FF072FB2346072204A9CDE93E
S214012B1001450096104820F09AFE00F0E7FB0EB043
S214012B20BDEC048B70BD4EF65F239C4208D94EF671
S214012B306022B4FBF2F20E4904A81FF08BFB99E762
S214012B40B4F57A7F29BF4FF47A722246B4FBF2F2CB
S214012B50084938BF0849EFE7BC0D00200AF1030019
S214012B6047F103000000C8425CF103006CF103006A
S214012B701BF103002AF1030039F103002DE9F041AE
S214012B8004462DED028B8846164600210D220F3095
S214012B901D46F0EE408A089FB0EE608A2BF02CFAB4
S214012BA0022323700123DFED247A63700B2368EE82
S214012BB0A78AE370FF2368EE270AFDEEE88A2371F1
S214012BC02B0A23722B0C63722B0EFDEEE00AA37206
S214012BD018EE903A18B210EE903A19B26671E07299
S214012BE06173360A09120012A6712073A173384662
S214012BF084F80280E5712BF044FA0A28024628BFC1
S214012C000A220923D6B22374731C3946E37304F1EE
S214012C10110011362BF00AFAE67620F0D1FE20F0EC
S214012C20D0FEBDEC028B05482A46E37E04490068C7
S214012C30BDE8F04121F0FABF0000C842E40E0020D2
S214012C407DF1030038B50D460346C27E00212846B5
S214012C5010F0BAFD044628B92846BDE838400221DE
S214012C6010F0C8BD20F0ACFE20F0ABFE034B2246B0
S214012C7018680349BDE8384021F0D8BFE40E0020AB
S214012C809EF10300DFED0D7A20EE270A60EEA70A1B
S214012C90BDEEC00AFDEEE00A10EE102A0346084615
S214012CA011B210EE902A12B2D9725A730912121288
S214012CB019739A730021DA7E10F086BD0000C842AF
S214012CC07FB5094B01A901930DF10303029301237B
S214012CD0ADF80C30054B186801F0FEFBB0FA80F039
S214012CE0400907B05DF804FB700002002C33002099
S214012CF0BA2370B50126194D86B08DF8033020F041
S214012D005FFE20F05EFE1649286821F08FFF154B06
S214012D1001A901930DF103030293134BADF80C6067
S214012D20186801F0D9FB044650B120F049FE20F0A6
S214012D3048FE0E49286821F079FF304606B070BD7E
S214012D40142006F06BFA20F03BFE20F03AFE08490C
S214012D50286821F06BFF2046F0E700BFE40E002054
S214012D60BCF10300700001002C330020DCF10300ED
S214012D70EFF10300F0B589B0FFF7A2FF584C58B940
S214012D8020F01EFE20F01DFE38225649206821F054
S214012D904DFF2D2009B0F0BD012620F011FE20F0D8
S214012DA010FE51493822206821F040FF4F4DFFF7B1
S214012DB09FFF642006F032FA4D4B0DF10707286895
S214012DC003A903930497ADF8146001F085FB48B19D
S214012DD020F0F6FD20F0F5FD4649206821F026FF9B
S214012DE00120D7E720F0ECFD20F0EBFD9DF8072051
S214012DF04149206821F01AFF20F0E2FD20F0E1FDB4
S214012E009DF807203D49D209206821F00FFF20F0E8
S214012E10D7FD20F0D6FD9DF807203949C2F30112EF
S214012E20206821F003FF20F0CBFD20F0CAFD9DF8BD
S214012E3007203449C2F3C002206821F0F7FE9DF84E
S214012E4007301A0701D50020A4E720F0B9FD20F0CD
S214012E50B8FD2D49206821F0E9FE02AB0493032357
S214012E602A4A286811889278ADF8081003A98DF8C7
S214012E700A20ADF80E60ADF8143001F02DFB28B134
S214012E8020F09EFD20F09DFD2149A6E70A2006F0D0
S214012E90C5F9022303A92868ADF80E300497ADF8EA
S214012EA0146001F019FB20F08BFD20F08AFD9DF8DF
S214012EB007201849206821F0B9FE9DF807301B0746
S214012EC008D420F07DFD20F07CFD1349206821F018
S214012ED0ADFEB8E720F074FD20F073FD0F49F5E76D
S214012EE0E40E002004F203002EF203002C3300202F
S214012EF07000020048F2030069F2030088F2030042
S214012F009FF20300B8F20300D5F2030091F3030029
S214012F1004F3030027F303004FF3030078F30300E1
S214012F202DE9F0432DED048B0324634E8FB08046CC
S214012F30894620F045FD20F044FD6049306821F0C7
S214012F4075FE5F4A5F4D1188927806AB8DF81A20A0
S214012F505D4AADF81810286809A9CDE90923ADF82E
S214012F602C4001F0B9FA002840F09F80502006F06E
S214012F7055F90223ADF8263007AB0A9307232868D4
S214012F8009A9ADF82C3001F0A7FA0746002840F051
S214012F908E8020F015FD20F014FD9DF822309DF85E
S214012FA01C2004939DF82130484903939DF8203056
S214012FB002939DF81F3001939DF81E3000933068F0
S214012FC09DF81D3021F032FE9DF91C30002B70DB80
S214012FD09DF81E409DF81D3024019DF81F5044EABF
S214012FE00334BDF8203044EA15145BBA2D049BB2B5
S214012FF005F470251D4320F0E3FC20F0E2FC234697
S21401300022463349306821F011FE20F0D9FC20F029
S214013010D8FC2B462A462F49306821F007FE07EEDA
S214013020904AB8EEE78A07EE905A9FED2B7AF8EEB3
S214013030E77A28EE078A67EE877ADFED288A9FED22
S214013040287A9FED289A57EE878A28EE098A20F07B
S214013050B7FC20F0B6FCBDEEE86AFDEEC86AF8EEF5
S214013060C67AB8EEE67A78EEE77A38EE477A67EE11
S214013070897A27EE097AFDEEE77A8DED006ACDEDC5
S214013080017AFDEEC77A16EE902A17EE903A1649A7
S214013090306821F0CBFD89ED008A3846C8ED008AFC
S2140130A00FB0BDEC048BBDE8F0833120F8E7352086
S2140130B0F6E72046F4E700BFE40E002094F3030091
S2140130C03BF403002C33002070000100AAF3030038
S2140130D0D5F30300EFF303000000803500004842FB
S2140130E0000048430000C8420BF403000123054AD0
S2140130F0411100F01F00834052F82100034342F8BB
S21401310021307047E80D0020044B1B681BB1044BAF
S2140131100360002070470120704700BFF80D0020B3
S2140131207C27002070B50D4C246884B10C4C8518A2
S2140131302688B5420DDC6688CD18B54209DC52B149
S2140131404BB1A0800020E1802281638170BD012007
S214013150FCE70420FAE70520F8E700BFF80D002099
S2140131607C2700202DE9F74F9946494B1B68002B19
S21401317000F08A80B9F1000718BF01274FF0010B54
S214013180DFF814A17F42BAF80650BAF80A300D9E4D
S2140131902B449BB20D440093FFB2ADB21EB930462C
S2140131A003B0BDE8F08F009AABB29A426ED9BAF876
S2140131B00840BAF80430241AB44228BF34461844EA
S2140131C0344B361B80B203EB0512B9F1000F0AD05F
S2140131D0072C26D80444A04216D32846FFF786FFBC
S2140131E001350020DAE7072C1BD80444A042F4D2AC
S2140131F0C108535C00F0070C0BFA0CFC23EA0C0325
S2140132000130535480B2F1E7C10812F801C000F052
S21401321007030BFA03F343EA0C030130535480B25D
S214013220D9E74FEAD00C02EBD00810F007000BD11B
S214013230E2083946404601922AF0DEFE14F0070401
S214013240019ACAD0904412E00BFA00F312F80CE08F
S214013250DBB2591E5B420EEA01013B4008381943B6
S214013260044402F80C10E20808F10108E1D10BFA57
S21401327004F498F80030E4B26242013C13403C404A
S214013280234388F80030A8E7012688E7042686E766
S214013290F80D0020372800207C27002037B5114D77
S2140132A02B68EBB900F054F9044610B1012003B0C5
S2140132B030BD00F041F928600028F7D00288418827
S2140132C0094B20461A801A814A43598059819C80AD
S2140132D0DC802146CDE9004223462246FFF742FF25
S2140132E00020E4E7F80D00207C2700202DE9F843B4
S2140132F0002301251A461A4FDFF86C803C68DFF878
S2140133006490D8F80000D61841888E4207D3FBB9DE
S2140133101022002112482AF06FFE002012E0E10779
S21401332008D50133D118C9060ABF57F825406408E5
S2140133300135E6E753B109EB021100F0B1F8034697
S21401334010B10720BDE8F883721CEBE70132E9E70C
S214013350044901EB021100F0A3F80028D8D0F0E7E9
S214013360E80D002037280020F80D002030B505466E
S21401337087B000B300226FF07F43C0E9012301A8A4
S214013380FFF7C2FE044698B9019BCDE902001A88F0
S2140133902B605B88013A013B284602A904920593FB
S2140133A020F009F9044618B92846044920F03CFAE9
S2140133B0204607B030BD0524FAE700BF70F70300CA
S2140133C00122014B1A61704700F0035013B5044601
S2140133D005F00CFF00230122217BCDE900324900D4
S2140133E0B0FBF1F1024A034821F0D4FE02B010BD51
S2140133F0C1330100100E0020F7B508260E4C054615
S21401340004F580531E67407B06F00EF904230B4F2C
S21401341002220DF106013846ADF8063020F046FAD4
S214013420384620F054FAA87B06F0FEF8002004F592
S2140134300054266703B0F0BD00C0035008330020D7
S21401344070B50646124821F022FBB16800221148E9
S21401345000F08EF8002304220321022002F06CF90A
S214013460002335460C4C04221946184602F064F92E
S2140134700FCD0FC401222B6830462360074B1A700C
S214013480FFF7A4FF3046FFF7B7FF002070BD00BF6F
S2140134905C00040008330020FC0D002037300020BB
S2140134A02DE9F74F05460E461446DFF888B01F4F44
S2140134B002EB03094C4502D103B0BDE8F08F4FF093
S2140134C0010800224FF0080A8DF806408DF8072003
S2140134D08DF80580CBF870A0687B06F0A5F842460B
S2140134E00DF10501384620F0E1F942460DF10601DD
S2140134F0384620F0DBF92A883146D208384620F0D3
S214013500D5F942460DF10701384620F0CFF9384685
S21401351020F0DDF9A87B06F087F8054B2A88C3F86A
S21401352070A0444406EBD206C4E700BF083300206F
S21401353000E0035000D00350034B04481B78002BD7
S21401354008BF0020704700BF37300020FC0D002068
S21401355030B5064D87B001AC0FCD0FC42B6801A85E
S2140135602360FFF76DFF07B030BD00BFA0FA030070
S2140135702DE9F04F04462D4E89B001AD894690469F
S2140135800FCE0FC596E80700D4F800B0284B85E8A3
S21401359007009B4545D003F580439B4543D0254D09
S2140135A0AB450CBF02254FF0FF35DFF890A022484F
S2140135B00AEB4517D7F8AC6521F069FA606821F087
S2140135C066FA617B207B0023042202F0B5F8042210
S2140135D0617A207A002302F0AFF80123584601A948
S2140135E08DF81230CDF80C90ADF8148020F0CEFB9B
S2140135F00020627A237A2E3543EA02430AEB451A03
S214013600CAF80430627B237B06F0040643EA0243D1
S21401361046F01806C7F8C035C7F8AC6509B0BDE86E
S214013620F08F0025C1E70125BFE700BFB4FA03000C
S21401363000800550000006505C00040000C00350E6
S21401364030B503687C4A23F47F4323F00703934293
S21401365089B040F0EE80082200211220774B10F04E
S214013660EFF8044610B3764D7649286821F0DEFA65
S2140136707549286821F0DAFA20F0A2F920F0A1F9BC
S214013680724B734A009373495C23286821F0CEFA83
S21401369071492346714A286821F0C8FA204600F08D
S2140136A025FB6F49286821F0C1FAFEE7014603228F
S2140136B014206C4B10F0C4F8044610B3604D6149F9
S2140136C0286821F0B3FA6049286821F0AFFA20F0A3
S2140136D077F920F076F95D4B5D4A00935D496A23E0
S2140136E0286821F0A3FA5C4923465C4A286821F041
S2140136F09DFA204600F0FAFA5949286821F096FA10
S214013700FEE7014605221620574B10F099F80546AC
S21401371010B34B4C4B49206821F088FA4A4920687F
S21401372021F084FA20F04CF920F04BF9474B484A37
S214013730009348497823206821F078FA46492B46B9
S214013740464A206821F072FA284600F0CFFA44492A
S214013750206821F06BFAFEE70DF10F0104A810F0C6
S2140137609DF8044610B3364D3649286821F05EFAB6
S2140137703549286821F05AFA20F022F920F021F97B
S214013780324B334A009333498323286821F04EFA9B
S21401379031492346314A286821F048FA204600F08C
S2140137A0A5FA2F49286821F041FAFEE7BDF8143042
S2140137B001465BBAADF818309DF8133008228DF833
S2140137C01A30FF238DF81B30FE238DF81C309DF830
S2140137D0123018208DF81D30BDF810305BBAADF8E8
S2140137E01E3006AB10F02CF8054610B3144C1549E4
S2140137F0206821F01BFA1449206821F017FA20F0FE
S214013800DFF820F0DEF8114B114A0093114993239B
S214013810206821F00BFA10492B46104A206821F047
S21401382005FA284600F062FA0D49206821F0FEF9F3
S214013830FEE709B030BD00BFA0000100D0FA0300CA
S214013840E40E002039F4030054F003000BFB0300E0
S214013850D9FA030062F0030071F003006EF0030072
S21401386086F0030001FB030005FB030007B501A872
S21401387002F0E2FA9DF80530012B27D1214A936D1B
S214013880DB0313D4536B23F4FF0323F4FE4343F407
S214013890BC1343F4A0635363136B23F4704343F4E4
S2140138A040431363136B43F4E06313639DF80430E2
S2140138B063B94FF000531B68134B1B68134B1B680F
S2140138C0134B1B68134B1B68134B1B68134AD2F828
S2140138D0803043F00303C2F8803004F023F900F08F
S2140138E045FB21F056F921F0C6F804F005FC00F07E
S2140138F033FB00F077FC01F0FDF803B05DF804EB54
S21401390005F002B900C000500040002000800020F1
S21401391000C000200000012000400120008000506F
S21401392008B5044821F0B3F8BDE80840024800F0A5
S21401393067BD00BF5C0004001833002030B5204D81
S21401394095B00DAC0FCD0FC495E80700032384E8AE
S214013950070001248DF84D301A4A1B4B0021CDE992
S21401396003231A4B0E220DF12600CDE905342AF069
S21401397043FB4FF48021164B0DAACDE907130B2309
S2140139808DF824300C238DF82530124B07A90A93A5
S21401399020230B93104B1148009303AB8DF8314055
S2140139A004F0ECFA04469DF832304FF4E130002B77
S2140139B00CBF0321002120F057F8204615B030BD7A
S2140139C064FD030000800550210005000600040286
S2140139D02480055038300020300E0020800E002054
S2140139E0831E012B10B512D8012922D8114B0422AF
S2140139F01B6905210020C3F3401301F09DFE0E4B09
S214013A001B681868A8B1BDE81040436A18478B1EAA
S214013A10012B0CD801280CD8BDE810400022054B1C
S214013A2005211B691046C3F3401301F085BE012929
S214013A30E5D910BD00C003503033002008B5044955
S214013A40044805F01BF9BDE80840FFF777BF00BF43
S214013A5038330020A40E0020014821F07EBA00BFB2
S214013A60800E0020014820F03AB800BF80FD030018
S214013A70184B37B583422AD1174B1B783BB3C8B2D4
S214013A800FF0CCFE054610B3144C1549206821F002
S214013A90CDF81449206821F0C9F81FF091FF1FF0F6
S214013AA090FF114B114A009311498523206821F09C
S214013AB0BDF810492B46104A206821F0B7F8284671
S214013AC000F014F90D49206821F0B0F8FEE703B0C4
S214013AD030BD00BFAC0E002058300020E40E0020A0
S214013AE039F4030054F003001CFE030098FD0300A4
S214013AF062F0030071F003006EF0030086F003002D
S214013B0030B500250368584A23F47F4323F00703A2
S214013B1085B0934204460295ADF80C507ED002F56E
S214013B20802293420ED0A2F18272934240F09A8094
S214013B304E4B1B78002B00F0958005B0BDE8304059
S214013B4021F0E0BBB0F805301B2B40F08B80FF2343
S214013B5004A91A4611E903001FF02BFF012814BF20
S214013B6041F2FC15414B05F0FC0208BF18701B2101
S214013B7020790FF07BFE054610B33D4C3D49206889
S214013B8021F054F83C49206821F050F81FF018FF46
S214013B901FF017FF394B3A4A00933A4959232068D8
S214013BA021F044F838492B46384A206821F03EF87F
S214013BB0284600F09BF83649206821F037F8FEE7E2
S214013BC0344900902379344A0968344800F0EAF809
S214013BD00546002846D0264C2649206821F026F8BE
S214013BE02549206821F022F81FF0EAFE1FF0E9FEC1
S214013BF0224B234A009323496223206821F016F8BA
S214013C0021492B46214A206821F010F8284600F069
S214013C106DF81F49206821F009F8FEE7B0F8053075
S214013C20B7EE047A07EE903AF8EE677AB0F8073006
S214013C3067EE877A013307EE103AB8EEC77A67EE79
S214013C40877AB1EE047A67EE877AFAFE677AFCEE37
S214013C50E77A17EE903AB3F57A7F38BF4FF47A7366
S214013C600C4A136005B030BDA00006025830002093
S214013C70E40E002039F4030054F003002BFE030089
S214013C8098FD030062F0030071F003006EF003007C
S214013C9086F0030040330020713A0100AC0E00208C
S214013CA0012208B5074B1A700022074B1A7004222E
S214013CB0064B1A701F22064B1A7003F0BFFF054B06
S214013CC0186008BD593500205930002058350020AD
S214013CD057350020E40E0020024B0349186820F0F7
S214013CE0A5BF00BFE40E00204BFE030070B50C4CD0
S214013CF00C490646206820F099FF03F09FFF054611
S214013D00206803F08FFF3046FFF7E6FF284603F0F2
S214013D1089FF20680449BDE8704020F087BF00BFD6
S214013D20E40E00204DFE03004FFE030038B50546A5
S214013D301FF0C5FE00230B4A14685CB1AC4206D1E5
S214013D40A96A6BB199621FF0C0FE012007E0234605
S214013D50A46AF2E7002DF3D01FF0B7FE204638BD67
S214013D601160F0E7E80E002010B50446B0B105F08A
S214013D70D5F92046FFF7DAFF10B194F82C300BB9CD
S214013D80002010BD064C2368002BF9D01FF097FECB
S214013D902368013B23601FF098FEF1E72220F0E73D
S214013DA0EC0E00202DE9F04385B005469146984675
S214013DB00E469DF8307009B9002F5CD12846FFF7F2
S214013DC0D3FF0446002836D185F82C00686305F039
S214013DD09BFA864233D905F009FA2146844640F219
S214013DE0E7304FF47A720023E6FB0C011DF07CFEEF
S214013DF04FF0FF3200231DF077FE2B46E886114672
S214013E002846CDE900441D4A21F004FA044690B93B
S214013E10C5E9089885F82D702E631FF050FE184AE4
S214013E20136833B31A469B6A002BFBD195620023B5
S214013E30AB621FF04AFE204605B0BDE8F08347B1ED
S214013E402B4631462846CDE900440C4A05F020FAB7
S214013E50DCE7304603A905F0FDF904460028EAD15F
S214013E602B462846CDE90077044A039921F0AEF99E
S214013E70CCE71560DBE72124DDE700BF853E0100C6
S214013E80E80E002091F82C3013B50C4683B98B8EC2
S214013E90CA8E93420ED243B9CDE9003320460B4673
S214013EA0124A4FF0FF3121F075F9A38E0133A38634
S214013EB002B010BD52B191F82D3093B10123009399
S214013EC0D1E908232046096BFFF76CFF012384F82C
S214013ED02C30074B1A6801321EBF1A6801321A606D
S214013EE0E6E7084605F01AF9F0E700BF853E01004F
S214013EF0EC0E00202DE9F041154E336833B34FF038
S214013F000008144F1FF0DBFD05463C6824B928461F
S214013F10BDE8F0411FF0D9BD94F82C30A3B1336849
S214013F2084F82C8013B13368013B336094F82D304C
S214013F3013B92046FFF7FAFE28461FF0C6FDD4E95E
S214013F40083120469847DDE7A46ADFE7BDE8F0813F
S214013F50EC0E0020E80E002008B5034820F097FD7F
S214013F60BDE808401FF0ECBC5C000400014820F0EE
S214013F708EBD00BF5C00040007B508201FF027FEB9
S214013F8002238DF80030054B684601931FF030FD83
S214013F90082003B05DF804EB1FF024BE006A181079
S214013FA00348044A0449121A92101FF06DBD00BF5F
S214013FB034210100D42201006031002008B500F050
S214013FC02FF8FFF7EDFF124B12498B4212D3002058
S214013FD0114B12498B4218D3FEF7C6FB186850F8EE
S214013FE02240586840F82240013298688242F5D350
S214013FF00C33EAE70022F8E71C6844F82200013295
S2140140005C68A242F8D30833E4E70022F8E700BF71
S214014010342F0400402F0400402F0400402F0400DA
S214014020124B134A70B59A60D3F88820114D42F4AA
S2140140307002C3F888206FF0010205F5005422666D
S21401404041F2FF7262660222C3F8D020BFF34F8F9F
S214014050BFF36F8F4FF44036032003F0C1FD0320FA
S214014060E66003F0A1FD2E6170BD00BF00ED00E02B
S2140140700020010000800044014B1868704700BF13
S21401408048330020014B1860704700BF48330020BA
S214014090084B1B6F03F00703022B04D0032B05D03C
S2140140A0012B05D0FEE7044B18687047034BFBE76E
S2140140B003487047008000504833002050330020EA
S2140140C0002D310108B5FFF7E3FF054B1B6FC3F366
S2140140D001330133B0FBF3F0024B186008BD00BF9B
S2140140E000800050443300200048704700B4C404E8
S2140140F0014B1868704700BF50330020054B18600D
S214014100054B1B6F03F00703032B01D1FFF7DABF43
S214014110704700BF503300200080005000487047B1
S214014120002D3101174B9868C0F304400C280AD8BB
S214014130DFE800F00B0909090909072119091B1D08
S2140141401F0011487047002070479B6803F04073BA
S214014150B3F1807F11D0B3F1007F10D00B4A002B52
S21401416008BF104670470A4870470A4870470A4811
S21401417070470A4870470A4870470A4870470A4815
S214014180704700BF0040015A405DC60000093D006F
S214014190C0EA210180BA8C010048E801005A620297
S2140141A00024F40080841E0040420F00014B186872
S2140141B0704700BF4C33002000239B6AB3F5903F45
S2140141C003D21968064A914203D000230370836024
S2140141D07047012202709A689B694260F7E700BF48
S2140141E007B0CD5E00239B6A10B5B3F5903F11D2A0
S2140141F019680A4A91420DD1094C227812F0FD0F36
S21401420001D0002010BDDB6998470028FAD10123B0
S2140142102370F6E74FF48170F4E700BF07B0CD5E78
S2140142205A3000204FF00053014A1A6003F098BC40
S21401423002020FF0034B5868C0F30800003818BF9D
S2140142400120704700ED00E0F7B5046805462648F2
S21401425020F01DFC002301226179207901F06CFA1F
S21401426014233021227911FB023101F1A04101F51D
S214014270703109686379D940C943A37901F0010116
S214014280022B217017D11FF0D3FC184A2B466179F7
S214014290207900F0ADFBFF28024660790ED12A4650
S2140142A0124900F0D5FB0123024661792079CDE958
S2140142B0003301F0FBF9002003B0F0BD0126277999
S2140142C0002301460096384601F09EFA2A46074921
S2140142D0607900F0BDFB00236179024620790093E6
S2140142E001963346E5E700BF5C000400F33A03009D
S2140142F013B500242948019420F0C9FB01230422A8
S2140143000321204601F018FA20461FF00EFD012277
S214014310234B0520C3F8442401A920F0AEFB002856
S21401432039D1204BD3F8F02042F00102C3F8F02037
S214014330D3F8FC2042F08072C3F8FC201A4AA3F599
S2140143405D431A60019B194A03F5D52303F2FC432A
S214014350B3FBF2F3164A013B13610223C2F8F030B5
S2140143604FF48073C2F804334FF06043114AC3F828
S214014370B02F114AC3F8802ED3F8002E42F4807273
S214014380C3F8002EFF2283F82020D3F8002E22F453
S2140143908072C3F8002E02B010BD00BF5C0004009E
S2140143A000D0035000ED00E0FF030040F8590D0077
S2140143B0000004E055CEACC5090001004FF0604393
S2140143C0D3F8802E30B5D20715D501240B4D844085
S2140143D0D5F8FC2042F08072C5F8FC20D3F8002EF8
S2140143E02243C3F8002E53F82020002AF0D003F809
S2140143F02010002030BD1120FCE700BF00ED00E0DA
S2140144002DE9F04303682F4A0446934285B056D0FF
S2140144102D4A934250D101252C4820F038FB012328
S2140144200A22A179207901F087F901230A22E1798C
S214014430607901F081F90A274FF00108244E4FF008
S214014440300942F210012379A27909FB036308FAC5
S21401445002F25A50642005F0E7F841F21001237980
S214014460A27909FB036308FA02F264205A5005F0A8
S214014470DBF8013FE3D1032306EB0512C2F89834BB
S214014480A17923794A3543EA0143C2F89C34E2799B
S21401449063792D0143EA0243735140F20113ADF8EB
S2140144A00030E36869460293A36820680193237C81
S2140144B08DF80C3001F004FA05B0BDE8F083002554
S2140144C00448AAE70000015A008006505400040080
S2140144D000C003505800040038B5054601F02CFB17
S2140144E0044C012801D1013C00D138BD284601F019
S2140144F009FAF6E7E19304002DE9F04F9A46564B88
S21401450085B01B7806460F461546DDF83C909DF8AB
S21401451044B0DDF85080002B00F09780072A00F2A7
S21401452096800E9B002B00F09280B9F1000F00F0F0
S2140145308E80129BB3F5006F00F38980012803D1AA
S214014540109B002B00F08380444B03EB05131B7B71
S214014550002B7ED0424C10220021684629F04CFDEB
S21401456004EB45141022A7BB3946204629F044FD2A
S21401457043F210036380BBF1000F03D1E37843F0ED
S2140145800303E370364A0E9B02EB451CCCE901930C
S214014590129B6901581E9DF84C30C0F30A0003F0C7
S2140145A003039B0643EA001E53582E48012E00EAD9
S2140145B003004EEA0003CDF800A0535017D0B8F11F
S2140145C0000F2ED19CF8023068F304138CF80230E9
S2140145D027E00021204629F00FFD4FF44473638045
S2140145E0BBF1000FCED1E37843F03003C9E71323C4
S2140145F00CF1100ECCF80C309CE80F008EE80F0082
S2140146006FF00301DCF81C20109B61F39F02012F61
S214014610CCF81C20CCF8143003D1CCF81890CCF888
S214014620043000270D4A290102EB051342F80180E8
S214014630159A28465A60694622469F605E7301F0C5
S21401464003FB384605B0BDE8F08F0748FAE7074890
S214014650F8E70748F6E700BF5B300020F00F0020C0
S214014660F00E00200F80FFF3028000F0018000F0C2
S214014670078000F038B5124B05461B78DBB1E0B178
S2140146801FF01DFA0F4A00231146147B54B92B6004
S21401469001251A0101EB03131D738C501FF015FA47
S2140146A0204638BD0133082B02F11002EDD11FF070
S2140146B00CFA0548F5E70548F3E70548F1E700BFBA
S2140146C05B300020F00F0020048000F0028000F034
S2140146D0018000F038B51FF0F2F9002305460B4AB9
S2140146E0147B6CB90133082B02F11002F8D101F0EA
S2140146F067FA074B28461C701FF0E7F9204603E0CF
S21401470028461FF0E2F9034838BD00BFF00F00202D
S2140147105B300020058000F00D4B10B51B78044679
S21401472093B1072812D81FF0CAF90A4B03EB0413FA
S2140147301A7B2AB100241C731FF0C7F9204610BD4E
S2140147401FF0C3F90448FAE70448F8E70448F6E717
S2140147505B300020F00F0020068000F0028000F0A1
S214014760018000F0154B13B51868002301908DF8F1
S21401477004301FF0A4F9124B1C7824B11FF0A5F9E0
S214014780104802B010BD01221A701FF09EF90E4BA0
S21401479001A81C731C7783F82C4083F83C4083F8EF
S2140147A04C4083F85C4083F86C4083F87C400823D7
S2140147B08DF8073001F020FA2046E2E7A4FE030058
S2140147C05B300020038000F0F00F00200A4A08B595
S2140147D012785AB107280BD8084A02EB00131B7B44
S2140147E043B1002101F0FAF9002008BD0448FCE7B6
S2140147F00448FAE70448F8E75B300020F00F002091
S214014800028000F0018000F0078000F00A4A08B537
S21401481012785AB107280BD8084A02EB00131B7B03
S21401482043B1012101F0DAF9002008BD0448FCE794
S2140148300448FAE70448F8E75B300020F00F002050
S214014840028000F0018000F0078000F00A4A08B5F7
S214014850127852B107280AD8084A02EB00131B7BCC
S2140148603BB101F03DFA002008BD0548FCE70548CC
S214014870FAE70548F8E700BF5B300020F00F00209C
S214014880028000F0018000F0078000F00D4B1B78DD
S21401489093B1072812D889B10B4B03EB00131B7B8E
S2140148A073B10A4B1A6D01238340134214BF0123CF
S2140148B0002300200B707047054870470548704775
S2140148C0054870475B300020F00F002000000450C0
S2140148D0028000F0018000F0078000F00B4A10B55E
S2140148E012780C4662B107280CD859B1084A02EB77
S2140148F000131B7B43B101F005FA2070002010BDA8
S2140149000448FCE70448FAE70448F8E75B3000206F
S214014910F00F0020028000F0018000F0078000F018
S214014920184B2DE9F0411F6D5B6D1F4000D5FEE76A
S21401493001260025144CDFF85880374218D023682A
S214014940C8F85060A3B1A168284601316268A16029
S2140149509847637B012B0BD150B90C4B03EB4513E6
S2140149601A7B60F341021A731A7F60F341021A77C9
S2140149700135082D4FEA460604F11004DDD1BDE8E5
S214014980F08100BF00000450F00F0020F00E002060
S2140149900020045070B5044601250B4E04B970BDC5
S2140149A094FAA4F0B0FA80F005FA00F306EB0012D0
S2140149B024EA03045368002BF0D0117B11B19168EF
S2140149C09847EBE79847E9E77010002038B50546A9
S2140149D00C461FF074F80022044B03EB05135C60D1
S2140149E01A73BDE838401FF070B800BF7010002081
S2140149F0F8B504460D4617461E461FF060F81CB96A
S214014A00052D13D0FF241AE0012C03D1012DF9D175
S214014A1003240BE0022C04D1ADB1052DF2D10724FD
S214014A2004E0032CEED1022DECD10924074904F150
S214014A30100301EB03110123C1E901760B731FF08B
S214014A4044F82046F8BD0624F0E700BF70100020A9
S214014A50F8B505460E4617461FF031F8134B2C469F
S214014A60D3F8242405F0FC0122FA05F3DB0712D55E
S214014A7000230133DBB2042B04D1FF241FF025F8F9
S214014A802046F8BDEC1804F003040C4422FA04FC9A
S214014A901CF0010FEDD1FF2CF0D00122044B03EBEB
S214014AA00413C3E901671A73E8E700BF00C00350A7
S214014AB070100020064BD3F82404D3F8202403F505
S214014AC00053104000F05530C3F82004FFF762BFD2
S214014AD000C00350064BD3F82404D3F8202403F572
S214014AE00053104000F0AA30C3F82004FFF752BF6D
S214014AF000C00350024B1968024B186815F0A2BBA0
S214014B00543300207433002070B5940022460546C5
S214014B100E462AF025FA431C0AD058B922463146D9
S214014B20284629F03FFA0028034808BF002070BD38
S214014B300248FCE70248FAE710E000F021E000F046
S214014B4024E000F010B504462AF006FA431C10D003
S214014B5088B901F099F9234620F0030020449842D1
S214014B6001D1002010BD53F8042B0132F7D00348C1
S214014B70F8E70348F6E70348F4E700BF0EE000F065
S214014B8021E000F024E000F008B51EF091FF014B93
S214014B90186008BD60190020014B18681EF08CBF14
S214014BA06019002041F67133124A30B5D469124DAE
S214014BB0D3639368A84204F4803423F4401306D8E0
S214014BC093600E4AD2F8183223F002030AE043F447
S214014BD0801393600A4B9842F3D9084AD2F81832E8
S214014BE043F00203C2F8183214B10022014BDA6313
S214014BF030BD00BF00000350005A620200C00750DB
S214014C0080F0FA022E4B98424AD022D82D4B984279
S214014C1040D014D82C4B984239D00AD82B4B984206
S214014C2032D02B4B98422FD02A4B98422CD00020C2
S214014C307047294B9842FAD1284B186F7047284B7A
S214014C4098422AD0274B9842F1D1244BD3F88000C2
S214014C507047254B98422BD009D8244B984223D035
S214014C60234B9842E3D11D4BD3F88C007047214B60
S214014C70984221D003F5740303F510539842D6D118
S214014C80164BD3F898007047144B986D7047134B2A
S214014C90586E7047114B586F7047104B986F70479E
S214014CA00E4BD3F8840070470C4BD3F8880070473E
S214014CB00A4BD3F890007047084BD3F8940070471E
S214014CC00048E8010024F400C0CF6A0080841E007A
S214014CD000093D0040420F00405DC6000080E00F25
S214014CE0C0EA210180BA8C01007E560380D54302BA
S214014CF0006CDC020090D00338B5134B0546D3F8A0
S214014D0020010C4600F0070004281AD8DFE800F05E
S214014D1003090D111500012305B1286004B12360B4
S214014D2038BDFFF7A9F90423F6E7FFF7E1F90323F6
S214014D30F2E7FFF7F7F90523EEE7FFF7EFF90223AE
S214014D40EAE700231846E7E70080005037B50C462F
S214014D500021114B0191D3F88031054603F003037E
S214014D60022B0ED0032B11D0012B03D101A8FFF784
S214014D70C3FF0D210DB1019B2B6004B1216003B06F
S214014D8030BDFFF7CFF905210190F3E7FFF7C6F92C
S214014D9002210190EEE700BF0080005038B5104BAD
S214014DA00546D3F840310C4603F00303022B0BD023
S214014DB0032B0DD0012B0FD11EF074FE082305B175
S214014DC0286004B1236038BDFFF7F0F90723F6E742
S214014DD01EF06BFE0923F2E701230020EFE700BF78
S214014DE00080005038B5104B0546D3F860310C46AC
S214014DF003F00303022B0BD0032B0DD0012B0FD195
S214014E001EF050FE082305B1286004B1236038BDAA
S214014E10FFF7CCF90723F6E71EF047FE0923F2E772
S214014E2001230020EFE700BF0080005038B5144B87
S214014E300546D3F800020C4600F0070004281BD8EC
S214014E40DFE800F003090D111500012305B1286004
S214014E5004B1236038BD1EF025FE0823F6E7FFF7F0
S214014E60A5F90723F2E71EF020FE0923EEE7FFF778
S214014E7029F90C23800AE9E700231846E6E700BF74
S214014E800080005038B5144B0546D3F808020C468E
S214014E9000F0070004281BD8DFE800F003090D1115
S214014EA01500012305B1286004B1236038BD1EF04A
S214014EB0F9FD0823F6E7FFF779F90723F2E71EF075
S214014EC0F4FD0923EEE7FFF7FDF80C23800AE9E776
S214014ED000231846E6E700BF0080005038B5104BA7
S214014EE00546D3F840320C4603F00303022B0BD0E1
S214014EF0032B0DD0012B0FD11EF0D4FD082305B1D5
S214014F00286004B1236038BDFFF750F90723F6E7A0
S214014F101EF0CBFD0923F2E700231846EFE700BF9A
S214014F200080005038B5104B0546D3F800310C46CA
S214014F3003F00303022B0BD0032B0DD0012B0FD153
S214014F40FFF7D6F8032305B1286004B1236038BD06
S214014F50FFF72CF90723F6E71EF0A2FD0623F2E77A
S214014F6001230020EFE700BF0080005038B50C4653
S214014F7005461EF09DFD054B9A6A54402C40544050
S214014F809C62BDE838401EF097BD00BF00C00050CF
S214014F90032814D005D8012805D0022809D00020FE
S214014FA005E00F28FBD1084B186FC0F30130013024
S214014FB07047054BD3F89000C0F30460F7E7024B47
S214014FC0186FC0F38020F2E7008000501FB5002361
S214014FD00193252817D8DFE800F0131A1D272C3671
S214014FE03B51565B60656A78161A401616561A27A4
S214014FF02C27361A5127783B3B3B3B2727275B60FC
S214015000FFF746F80190019805B05DF804FBFFF73D
S21401501059F8F7E7FFF73CF802460220FFF7B8FF1A
S214015020B2FBF0F20192EEE7FFF74CF802460320DE
S214015030F4E7FFF747F802460320FFF7A9FFB2FBA4
S214015040F0F25208EEE7002101A8FFF77FFEDAE74B
S214015050002101A8FFF750FED5E702934FF0E023A9
S2140150601B695B0705D5FFF72DF80290029B01939C
S214015070C9E703A902A8FFF791FEF7E7002101A8F7
S214015080FFF78CFEBFE7002101A8FFF7ABFEBAE7EA
S214015090002101A8FFF7CAFEB5E7002101A8FFF726
S2140150A0F1FEB0E7002101A8FFF73CFFABE7094B93
S2140150B0D3F8803003F00303022BA8D0032B01D0D2
S2140150C000209FE7FFF72EF89CE7002101A8FFF7D5
S2140150D005FF98E70080005008B50120FFF776FF2E
S2140150E0BDE808400349884294BF012102210320FC
S2140150F000F002B880F0FA02032810B50C4627D05B
S21401510004D8012804D0022817D010BD0F28FCD1DE
S2140151101EF0DBFD1EF0E1FD124A013C136F23F485
S214015120405343EA04331367FEF7CCFF0021FFF731
S21401513039FDBDE81040FFF7CFBF0A4A4C1ED2F832
S214015140903023F0F85343EA0463C2F89030DCE76A
S214015150044A4C1E136F23F4806343EA84231367C7
S214015160D3E700BF008000501FB500230193252818
S21401517021D8DFE800F013202020202A2F454A4FAF
S21401518054595E7120203420204A202020202A20D5
S2140151904520712F2F2F2F2020204F54314B1B6F6E
S2140151A003F00703013B032B05D8DFE803F00C02ED
S2140151B0080A04230193019805B05DF804FB032354
S2140151C0F8E70623F6E70223F4E7002001A9FFF734
S2140151D0BDFDF0E7002001A9FFF78EFDEBE7029386
S2140151E04FF0E0231B695B0705D5FEF76BFF0B232A
S2140151F00393039BDEE703A902A8FFF7CFFDF8E7B9
S214015200002001A9FFF7CAFDD5E7002001A9FFF795
S214015210E9FDD0E7002001A9FFF708FECBE7002053
S21401522001A9FFF72FFEC6E7002001A9FFF77AFEC6
S214015230C1E70C4BD3F8803003F00303022B03D0F5
S214015240032B05D00023B5E7FEF73CFF0B23B1E7A0
S214015250FEF768FF0523ADE7002001A9FFF73EFE34
S214015260A9E700BF00800050024A536A23F00103F9
S2140152705362704700C0075008B5FFF775FF07284F
S2140152800ABF024B4FF6FF70188808BD4435002050
S21401529008B5FFF769FF03280ABF024B4FF6FF70F8
S2140152A0188808BD4235002038B50546FFF7AAFC28
S2140152B0204B04465A68012A04D11F494A609A695C
S2140152C09207FCD10020FFF74FFF042803D11EF000
S2140152D0FCFC1EF002FD194A24F0407395421FD0D3
S2140152E0174A95421FD0174AD16811F0060FFBD115
S2140152F09068936091684B4013F4F81F16D12846C6
S214015300FEF7C0FE0020FFF72FFF042810D1FEF79E
S214015310D9FE0021FFF746FCBDE83840FFF7DCBEAA
S21401532043F00073DFE743F08073DCE79060E9E762
S21401533038BD00BF00C0015000E0015040420F00E0
S21401534080841E0000000150F8B504460020FFF7D7
S2140153500BFF032800F0818045F60E0302213F4A29
S214015360C2F880303E4B9962012103F58053996261
S214015370936DD903FCD4D4E900131B0543EA0163FA
S214015380E17B94F820500B43217BE77E43EA0143FF
S214015390617B6D0143EA0133A17B43EA811313610B
S2140153A09169D4E904031B0643EA806301F00041D6
S2140153B00B43A17E94F823000B43217E43EA01436D
S2140153C0617E43EA01239361136AE66923F00D03C4
S2140153D094F8221043EA870366BB1362966A94F830
S2140153E0213045EA031326F033052B4343F001032E
S2140153F093621C4D194A936D35EA0303FBD10225CE
S214015400174B9D62936D5B00FCD41369A56823F46A
S214015410700343EA055313614FF00042104B9A6143
S21401542019B9022203F580539A6278B901220E4B0C
S2140154309A620BE0334343F008031362936A23F046
S214015440330303432B4343EA4103936294F8243026
S2140154501BB1024B054AC3F88020F8BD00C00050BE
S21401546000D000500300014000E00050F1A7FFFF0C
S21401547070B5184CFF28A66A2AD8A36D13F4803F8E
S21401548018BF0122144B18BF9A6202229A62A56DB8
S21401549015F08045FBD1114AA36992F9002023F447
S2140154A07F03024423F47F4382F3080243EA002386
S2140154B043EA0243A36131460220FFF757FDA36D7D
S2140154C0DB0303D531460120FFF750FD284670BDAA
S2140154D02125FBE700C0005000D000505C300020C2
S2140154E0014B93F9000070475C30002001231248FD
S2140154F0124A816A9362836D03F00303032BFAD188
S214015500022393620C4A936D5800FCD40C48936DA9
S21401551030EA0303FBD10122084B1A65A3F5805339
S2140155209A6D9207FCD49A6D9007FCD59A6D9207F6
S214015530FCD50320FFF71ABD00C0005000D0005074
S21401554003000100F0B5D0E901434FF4D15602271C
S214015550164A417805785662154E4F2977604FF006
S214015560010728BF4F2106F5805677601669F603B6
S214015570FCD441EA052151611B01417B43EA042326
S2140155800B43017B43EA41039360C37B817B1B0191
S21401559043EA4113417C0B43017C43EA41035360D8
S2140155A0837C13B16FF4D1535362F0BD00000250F7
S2140155B000100250014B1880704700BF4435002090
S2140155C0014B1880704700BF42350020284B984297
S2140155D042D01AD8A3F5B703A3F55863984237D03B
S2140155E00CD8244B984225D0234B98422AD0234BE3
S2140155F0984217D00023224A93607047214B984265
S214015600F8D1214BD3F8BC301FE0204B984227D06D
S2140156101F4B984228D01F4B9842EBD11A4BD3F818
S214015620C83012E0184BD3F8A03023F0407343F093
S2140156300073E0E7144BD3F8A03023F0407343F037
S2140156408073D8E7104BD3F8A03023F04073D2E72D
S2140156500D4BD3F8B830F8E70B4BD3F8C030F4E76E
S214015660094BD3F8CC30F0E7074BD3F8D030ECE752
S214015670C0EA210180841E0000093D0040420F005F
S2140156800040015A0024F4000080E00F0048E801C1
S214015690005A620280BA8C01034A0179D36E23F064
S2140156A030030B43D366704700400050072A2DE9AC
S2140156B0F0410D46144698460FD803269700BE4083
S2140156C000FA07F2314615481EF020FB05F00302EA
S2140156D031461348BA401EF019FB124B12499DF889
S2140156E01800B8F1000F18BF1946012303FA04F495
S2140156F00C600E4B0E49002818BF0B461C600D4B64
S2140157009DF81C00C3F82044103103F224430028FE
S21401571018BF0B461C60BDE8F08100BF00C40350F3
S21401572008C4035010D4035010E4035014E403508B
S21401573014D4035000E00350F8B504460D461F4646
S21401574016464AB101238B403021184A01FB00223C
S214015750F7B141F21001535004EB4403072D4FF00B
S2140157600F014FEA031316D8A80006FA00F281408B
S2140157700F4818441EF0CAFA4EB9012330210B4ACD
S214015780AB4001FB042277B141F210015350F8BD42
S21401579042F21001DFE7A5F10800800006FA00F2E8
S2140157A081400448E5E742F21001EFE700C00350EC
S2140157B004C003500CC00350104B0140D3F83024F2
S2140157C022EA0002C3F83024D3F830241143C3F888
S2140157D03014D3F82C240243C3F82C24084AD36E81
S2140157E003F03003202B1FBFD36E23F0300343F0AA
S2140157F01003D366034BC3F82004704700C0035060
S2140158000040005000E0035038B514461D46032200
S21401581083F00103FFF790FF012004F11001884097
S21401582005FA01F1FFF7C8FF9DF81010034B044A73
S214015830002918BF1346186038BD00BF24E4035082
S21401584024D40350F8B505460E4614465AB303F061
S2140158500307836823F4407383601EF029F9AA685E
S21401586082EA072303F440735340AB601EF024F929
S21401587036B9104B9D4217D11620FFF7A7FB0646F7
S214015880AB680D4BDA5D62430DD0A2EBC403013B5E
S2140158903344B3FBF2F3AA68013B920702D5002B0F
S2140158A008BF0123AB61F8BD044B9D42E8D1172028
S2140158B0E3E700BF0000015AC9FE0300008006505E
S2140158C038B500230E4A036400F50053DA634A78BC
S2140158D004460D4600F108037AB903F58053022207
S2140158E01A602046D5E901122B7BFFF7ABFF204655
S2140158F02978BDE838401EF019BA03F50053EEE7E3
S214015900FFFF1F00874B70B5984219D0864B98420F
S21401591040F00581854B9968C26B12F4C06F15D0B3
S21401592091050FD5FD225A7009221A7000220264D1
S21401593093F90110012900D15A7093F9010070BD45
S2140159407B4BE8E75605EFD5FE22ECE71C78082CE2
S21401595000F2E180DFE814F009001F004500530063
S21401596070007E009C00A700D6004C880A88E506D9
S2140159700AD5120A02F0060242F0F002012119705D
S2140159804263C1600120DAE702F0FE02A10748BFC8
S21401599042F00102F2E7160608D5802100F5005212
S2140159A0D1634FF608721A80022318E05506E9D52E
S2140159B0402400F50052D4634A88D40604D5022256
S2140159C01A700B784363DDE796076AD507221A70CB
S2140159D01B7901EBC3031B89012BD3D10823C360B9
S2140159E0D0E71506D9D45406CCD5402400F500528C
S2140159F0D4634A88920754D503221A708CE74C88E0
S214015A000A88E60643BF120A02F0060242F0F002D6
S214015A1002F0FE02650709D51C7942F0010201EB8E
S214015A20C4010989012904BF0821C1600421197034
S214015A300123C3604263A5E71406AED45206A1D57E
S214015A40402400F50052D4634A88560729D5072218
S214015A501A7097E71A795D8801EBC2042689AE426F
S214015A600FD800240132D2B21A715C804C886507C7
S214015A70C2D4E40702D4012A7FF64EAF08221A7078
S214015A8092E76268691C5980525D42630622DFE72D
S214015A90160682D455067FF575AF402400F50052F0
S214015AA0D4630522A9E794067FF56CAF456A214CBD
S214015AB046691A793440B4F5003F04BF466A4FF48C
S214015AC0005601EBC20100F500540A8908BFE663DF
S214015AD02026E6635C88A24281BF4968661C5E8018
S214015AE00D5559888A42C9D90424012AC46004D0B4
S214015AF0013A914201D10822C2601A78092A3FF47C
S214015B0015AF3FE7D2057FF53DAF4FF4807100F545
S214015B100052D16308E74FF609321A8006E76FF0A4
S214015B2003000CE70000015A00800650701900209F
S214015B3064190020200002001C4B10B4984207D0C4
S214015B401B4B98422ED06FF003005DF8044B704754
S214015B50184B0269D20744BF2022C2604A889407C4
S214015B6002D50C89002CEED0520702D50A8A002AEB
S214015B70E9D04FF480721A60002299601A71C0232E
S214015B80C3604369DB050FD4202200F50053DA63B6
S214015B90094A5DF8044BDA63036C43F4FC6303645F
S214015BA0FFF7B0BE054BD4E7436AEAE70000015AA7
S214015BB00080065064190020FFFF1F0070190020A6
S214015BC008B5152001F0DEFF0022FF21024B5A65C1
S214015BD099625A6008BD00BF00000450044A054B94
S214015BE0002908BF1346012282401A60704700BF91
S214015BF0401004504020045010B504464178027805
S214015C000120104B120658609A60A278152042EACD
S214015C1001429A61FF229A6200229A631A644FF047
S214015C2000425A654FF0FF3203F500531A6501F042
S214015C30D7FF1520E17801F0E1FFBDE810401520FF
S214015C4001F0B2BF00000450F8B50125C3B2DFF879
S214015C508CC0D1F800E09D408F7ACB7A0C46097B48
S214015C60CCF850500CF5005C4CF820E04FF0300EAC
S214015C70184E1B050EFB006094F80DC043EA07435F
S214015C8043EA415322F00302C0F860C0C3650267CD
S214015C901DF015FF104B5D65237A13B1336C2B4352
S214015CA03364637A13B1B36B2B43B3632279A3795D
S214015CB043EA0243094A93616179E37943EA01437E
S214015CC005498B61034B55639D64BDE8F8401DF0A3
S214015CD0FCBE00BF00000450001004500020045019
S214015CE010B50124C0B284401DF0E9FE044B5A6D84
S214015CF022EA04025A659C62BDE810401DF0E5BE2A
S214015D000000045010B50124C0B284401DF0D7FE37
S214015D10074BDA6A224208D15B6B9C430CBF012415
S214015D2000241DF0D2FE204610BD0024F9E700BF76
S214015D300000045041F67132034BDA63012203F589
S214015D400053DA60704700BF0000035041F671321D
S214015D500121044BDA6303F50052D1600022DA63B5
S214015D60704700BF00000350CB784A7810B55B013E
S214015D700C7843EA82030A79234343EA02130C228E
S214015D80424302F1B0421363012C02BF8A78024BF0
S214015D9043F8202010BD00BFD080035008B54FF057
S214015DA0B0435A686AB958B15B680BB11DF0C8FFB9
S214015DB001210D4B59601DF0C3FF4FF0B043D96070
S214015DC008BD5B680BB11DF0BBFF0028F0D11DF0CC
S214015DD0B7FF4FF0B0430222DA601DF0B1FF012297
S214015DE0024B5A60ECE700BF001000580020005834
S214015DF04FF0B0414B6810B50BB11DF0A1FF012269
S214015E000B4BC4785A608378934043EA8403447802
S214015E102343047943EA0413447943EAC4038B60B9
S214015E20044B5A600378C3F10203CB6010BD00BF78
S214015E300020005800100058054B5B69C3F385121B
S214015E40827003F03F021B0B42700370704700BF65
S214015E5000C0075040F6B732064B5B689BB29342D0
S214015E609FBF4FF47A72B3FBF2F3034AD05C88BF4C
S214015E70002070470080E00FCDFE0300014B986CB8
S214015E80D96C70470080E00F0120034B9B680A33F2
S214015E9003F01F03984070470080E00F0D4B9842B7
S214015EA008D1A3F50033C3F88411C36D43F0800312
S214015EB0C3657047084B984204D1A3F51033C3F865
S214015EC09411F2E7054B984204BFA3F52033C3F8BB
S214015ED0A411EAE70080055000C0055000000650F6
S214015EE070B5054616461C4619B90320FFF76EF82D
S214015EF00146402C1BD003D8DCB1202C1BD070BD32
S214015F00602CFCD1042303FB06F2530803EB411378
S214015F10B3FBF2F3094A203B02EAC303AA6822F064
S214015F206002AA60AA681443AC60EB61E7E7062347
S214015F30E9E71023E7E70823E5E700BFF8FF7F005E
S214015F40012200F580535A6040F6AA6341F2050229
S214015F50436100230D498360C365C26000F50052AA
S214015F600361C361C364916409498365884203D1AF
S214015F7003650023436506E006498842F8D001F52B
S214015F8080418842F4D0012353607047FFFF01002F
S214015F900080055000C0055070B50D46FFF7D0FFD4
S214015FA0012300F580567360AB7C04461BB1836801
S214015FB043F080438360EB7C1BB12046297DFFF7CD
S214015FC06DFF2A8A6B7B20461343EA891343E360FD
S214015FD02B7BD5E90112FFF783FF6B7D1BB1A3680D
S214015FE043F48033A360AB7D1BB1A36843F4004345
S214015FF0A360EB7D2A7E1B07120502F4E00203F084
S214016000E0431343A365697E1F4A8B1E012B1F4B7A
S2140160101DD8944217D002F58042944215D002F55D
S214016020804294420CBF02224FF0FF3203EB421330
S214016030022041F2AC520329985020D10423F36583
S2140160402B78636170BD0022F0E70122EEE79442EF
S21401605011D00F4A944210D002F5804294420CBFF0
S21401606002224FF0FF3203EB4213022042F2AC52FF
S21401607001299850E1E70022F5E70122F3E704221F
S21401608004F50053DA65DBE70080055000C00350D5
S21401609000C0055038B50446054D27F0C6FA0FCCAA
S2140160A00FC594E80F0085E80F00002038BD00BF3B
S2140160B07C19002047F6FF739A42F0B572D0022988
S2140160C072D83A4B5B5C022B6ED8394DDF0005EB7C
S2140160D0C304A17815F83330012938BF0121012BFB
S2140160E013D10025E078401AA84202D80844C0B26D
S2140160F0F0BD431B6668A0EB530336F91360964266
S214016100D4BF1D4603F1FF30EEE760680028EFD0EC
S214016110B0F90040944204DBB0F902409442B8BFA3
S214016120144683883D44FF2B19BFC8224FF0280C24
S214016130B0F90620B0F908C0A2EB04030CBF012693
S214016140002693FBFCF333446E781BB29E4201DDBE
S214016150002B01DA731E1BB24FF47A7C01339BB21B
S214016160071D5D1E2DB24FEAC50E00EBC505EA8878
S214016170AD689E4214FB025222EAE27202F15C0210
S214016180B2FBFCF204DD37F8335001339542E8D216
S21401619000EB0E039888904228BF1046884238BF0D
S2140161A00846A4E7FF20A3E70020A1E7D0FE0300EE
S2140161B07C1900200229F0B560D8314B595C0229C0
S2140161C05CD8304B13F83100012816D103EBC1031C
S2140161D09C78D878012C214638BF0121904294BF83
S2140161E0C1EB0001C1EB0201001BCAB28242C8BF6B
S2140161F000225B6833F91200F0BD002A3CD003EBA5
S214016200C1035968002939D09878904202D3B1F970
S2140162100200F1E7DC78B1F900009442ECD95C7831
S2140162208B88013CA3F1FF06734201F10405E4B239
S214016230734101F10C07DEB2B44216D805EBC30375
S2140162404FF47A756A43B3F902405B68D21A04EBDD
S214016250D47302EB630292FBF4F29042CCDBB1F909
S21401626002009042C8DC10B2C6E737F833C05E1CA5
S2140162709445E3D33346DEE70348BDE70348BBE76F
S214016280D0FE03007C1900200CFEFFFF0080FFFFFC
S21401629008B50448FFF7FEFEBDE80840012027F0D8
S2140162A0C8B900BFD4FE0300004870474635002039
S2140162B07FB50222084B0949CDE901234FF000734F
S2140162C0CDE90313052301A94FF0FF30059327F00D
S2140162D0E0F907B05DF804FB006A1800000204004C
S2140162E02DE9F0418CB08846DDE912761D4604465C
S2140162F0002847D0002945D0002F43D0002E41D09A
S21401630013F00F033ED120482049A360002A08BF9E
S2140163100146E361C4E90013404609A91DF090FE59
S21401632068BB204609991DF0CFFF294620461DF07F
S214016330CBFF694640461DF031FF00BB694620464B
S2140163401DF0AEFF404603A91DF033FFB8B9204645
S21401635003A91DF0A5FF06970127204645F0005525
S21401636006A9079708951DF09BFF204609A90996DF
S2140163700A970B951DF09EFF20461DF08FFD0CB071
S214016380BDE8F0812120FAE70001000400010104C4
S2140163902DE9F0418CB0884616461D460446129FEC
S2140163A000284BD0002949D0002A47D0002F45D0DD
S2140163B00B68103B102B41D8214A22FA03F3D90768
S2140163C03CD500231F4A8360C0E90023C36109A9A5
S2140163D040461DF035FE70BB204609991DF074FF3E
S2140163E0294620461DF070FF694640461DF0D6FE40
S2140163F008BB694620461DF053FF404603A91DF021
S214016400D8FEC0B9204603A91DF04AFF069601260C
S214016410204606A945F00055079608951DF040FF51
S214016420094B204609A909970A960B931DF042FFCE
S21401643020461DF033FD0CB0BDE8F0812120FAE7BF
S214016440010101000000040410000020F0B50C4614
S21401645017461E46054695B0002874D0002972D00E
S214016460002A70D0002B6ED0036B0F2B5BD8002355
S214016470364A3846C4E90023A360E36111A91DF03A
S214016480DFFD00285BD1204611991DF01DFF296B09
S21401649020460F2984BF01F00F0110311DF014FFB3
S2140164A0384602A91DF07AFE002848D1204602A9E6
S2140164B01DF0F6FE384605A91DF07BFE00283ED1EC
S2140164C0204605A91DF0ECFE0122214B08950992F4
S2140164D00A932B6B05F1100003F00F0141F00051F8
S2140164E00B900F2B0C920D910E900F9243F00052D1
S2140164F0109226D90A9B08A923F0005320460A9336
S2140165001DF0CEFE0BA920461DF0CAFE01231196F2
S21401651012930F4B204611A913931DF0CBFE204674
S2140165201DF0BCFC0BE000F120030190009301225A
S214016530102339462046FFF7D3FE002897D015B022
S214016540F0BD0EA9DFE72120F9E700BF0000040433
S214016550100000202DE9F04F9BB00C4690461F46D8
S2140165600546DDF89090002800F0B280002900F082
S214016570AF80002A00F0AC80002B00F0A980026BEF
S21401658002EB09031B09B3EB121F02F00F0600F022
S214016590978000234F4A8B60C1E90023CB614046B8
S2140165A017A91DF04DFD0346002840F0858006EB37
S2140165B0090B204617992BF00F0A1DF085FE514650
S2140165C020461DF081FE404602A91DF0E7FD034668
S2140165D0002871D1204602A91DF062FE404605A999
S2140165E01DF0E7FD0346002866D14FF00108019033
S2140165F005A920461DF054FE374A204608A90895ED
S214016600CDF824800A921DF04BFE46F00051AAEB0D
S214016610060605F1100346F000560B93CDF83080C0
S2140166200D910E97CDF83C8010960D99204621F0DD
S21401663000510D910BA900931DF032FE20460EA9C4
S2140166401DF02EFE019B244A1193AAF1100343F07C
S2140166500053CDF84880139305F120031493CDF829
S21401666054801692139B204643F080431393139B4A
S21401667011A923F0005313931DF01CFE204614A904
S2140166801DF018FE144A17A920461795CDF860800C
S21401669019921DF00FFE20461DF000FCAAEB0B011F
S2140166A049440190ABEB0A020098394427F0DCFC20
S2140166B0019B2A6B4A442A6318461BB0BDE8F08F3B
S2140166C010304A463946304427F0CEFC0023F0E726
S2140166D02123F1E703020004100000202DE9FF4703
S2140166E04FF000080E4617460446CDF800800028F5
S2140166F059D022B90025284604B0BDE8F087002904
S21401670051D032F0030902F0030A1FD04FF0E063C4
S214016710C0E9003801230191C0F808800293C0F84F
S2140167201C8049F0005301A903931DF0C3FD49469F
S21401673020461DF0C9FD20461DF0B0FB054628B1D8
S2140167404A464146304627F057FCD4E7BAF1000FD7
S214016750D0D04FF000084FF0E063C4E900380123C1
S214016760CDF804D00293114B204601A9C4F8088045
S214016770C4F81C8003931DF09DFD042120461DF0E6
S214016780A3FD20461DF08AFB054608B13A46D8E728
S214016790009A4E44EB00013522FA03F3AA4506F8A7
S2140167A0013BF7D1A6E72125A5E700BF040000209D
S2140167B0F0B50F4616461D46044693B010B9212083
S2140167C013B0F0BD0029FAD0002AF8D0002BF6D07D
S2140167D0002331461A4638461DF0D7FB0028EFD174
S2140167E0304602A91DF07CFB0028E9D138683449FF
S2140167F0029A88426B695ED19342E0D32B68002BE4
S214016800DDD14FF060623846C4E90023A360E3613E
S21401681001A91DF015FC0028D2D10199204621F4CA
S214016820F06101911DF050FD694628461DF008FCF7
S2140168300028C5D1204600991DF046FD384609A915
S2140168401DF0ACFC0028BBD1204609A91DF028FD8F
S21401685038460CA91DF0ADFC0028B1D120460CA984
S2140168601DF01EFDEB684BB1284606A91DF096FCEF
S2140168700028A5D1204606A91DF012FD304603A921
S2140168801DF097FC00289BD1204603A91DF008FDAA
S21401689028460FA91DF08DFC002891D120460FA98E
S2140168A01DF008FD032520461DF0F8FA012887D1C2
S2140168B0013DF8D184E7B3EB420F9FD27FE700BFDB
S2140168C0200000B070B50E46154604468AB0002872
S2140168D05CD000295AD0002A58D0012329461A46EE
S2140168E030461DF052FB00284ED1B36813F4C04F5A
S2140168F04CD0AB6803F4C043B3F5005F46D1254BDB
S214016900A060C4E90030E06107A930461DF098FB9D
S214016910002839D1204607991DF0D6FC01230293A1
S2140169204FF00053204601A903931DF0B9FC3046F1
S21401693004A91DF03EFC38BB204604A91DF0B0FC9E
S214016940EB681BBBAB6803F4C043B3F5005F1DD116
S214016950694628461DF0E7FAB0B9009B6A699A4273
S21401696016D32A6943F0005307920122204607A94D
S2140169700892032509931DF09DFC20461DF08EFA12
S214016980012801D1013DF8D10AB070BD2120FBE7F5
S2140169901D20F9E7000001021FB5044698B191B128
S2140169A000230A4A8360C0E90023C36101230191E1
S2140169B00293074B01A903931DF07CFC20461DF0B2
S2140169C06DFA04B010BD2120FBE700BF00000843AC
S2140169D00400002006289ABF014B185C002070476F
S2140169E0C0FF030030B5154B87B00293144B0390DC
S2140169F0049346F611030D46059300F077F9142823
S214016A00044616D168461DF015FD4FF0A843032233
S214016A1002A95A6319601D619A63DA6B9207FCD169
S214016A20142C02D168461DF013FD00F08FF90446C0
S214016A3001E00028E9D0204607B030BD9C190020AF
S214016A40040000202DE9F04FB1B005468C469E4665
S214016A50E8466F4EDDF8EC90409C06F1100A47467A
S214016A6030687168083603C75645B846F7D13E9B6D
S214016A7003EB0208C8F1000A0AF00F0AB9F1000F89
S214016A8000F09D80C9F1000707F00F070121DDF82E
S214016A90FCB044F00050C4F11006CDF810B00591DA
S214016AA00690300200F4F85040F021000790B9F14A
S214016AB0000F40F08680CDF820D047F00050002D22
S214016AC000F08480099121210A9041EA07210B9167
S214016AD042F00050CDF830C03D9B08A94FEA0A2C81
S214016AE00D910E904CF041000F901093002A75D135
S214016AF03E9B119143F0005312933C9B13901493C9
S214016B0010AB1593434B444A169340F61103179363
S214016B10424B0021002D08BF1346189314AB19935E
S214016B203F4B10221A9311231B931CAB184627F0D8
S214016B3063FA01221D92002246F0804603461E9605
S214016B40239205B9EB46102CCDF880B024AE4BD17C
S214016B5001232246002130462193229427F04CFA45
S214016B6020AB002125938F4218BF334647F0804261
S214016B7026923A9A2CA828922993B2FA82F35B09B4
S214016B8049EA837310222B912A9327F035FAB9F13B
S214016B90000F00D028AED04448F080432CA918A896
S214016BA02D962E93FFF71EFF30B92DB90346A3424B
S214016BB025D1002818BF2C2031B0BDE8F08F102752
S214016BC064E7CDF820E049F0005078E7002C3FF468
S214016BD079AF04A9099101210A9076E73E9B0CAA98
S214016BE011924120129388E710220021304621930A
S214016BF0229427F001FA002CB2D10123B1E703F168
S214016C00C0026A4412F8C02C01331043CFE700BF1C
S214016C10C7FF030010000020DCFF0300E0FF0300B5
S214016C2004000020F0B5C0299FB0DDE9244557D007
S214016C30B1F5807F04D0802948D029201FB0F0BD4F
S214016C4001265CB140F23447029410240396049462
S214016C50212401970594069502AC0AE040F21447F8
S214016C600294102403960494212405940124019788
S214016C700695079401251024089409950A92212265
S214016C800B950C940D92174A0AAD0E92164A0F9563
S214016C90109242F6110211921293139514941592C2
S214016CA001AA1692D3B112AB17930423189311239A
S214016CB0199316AB1A901B9340F61103C9081C9141
S214016CC01AA806A91D93FFF78DFEB7E7012614B98A
S214016CD04FF48267C4E74FF48667B5E70EABE3E788
S214016CE00F20ABE7D8FF030010000010144A38B598
S214016CF0D2F8803243F00103C2F88032114B5B6850
S214016D00C3F3080343B14FF0A842D36B13F0430F0C
S214016D10FBD11424204638BD4FF0A843DC6B14F099
S214016D204304FBD1084D2B681BB90421284602F009
S214016D30B9FE2B68013343F000432B60EAE700BF3E
S214016D400080005000ED00E09C190020014B00205F
S214016D505B68704700ED00E0012300F01F02A0F51C
S214016D6006200949A0F550604009934051F82020BB
S214016D701A4341F82020054951F8202022EA03024F
S214016D8041F82020704700BFB4190020A019002048
S214016D900121A0F506230E4AA3F550635B0900F016
S214016DA01F00814052F82300014342F8231009498D
S214016DB0D1E90030034488680344C868096903447C
S214016DC05B1802BFC2E90033C2E9023313617047A0
S214016DD0A0190020B41900202DE9F04FA9B00392A4
S214016DE01D4604460822339ECDE90401414021FA9E
S214016DF002F34B40980702F1080218BF9B00202AB5
S214016E001C44F4D18123B4FBF3F303EBC313E41A5C
S214016E10734B04F506241B7804F55064002B3ED111
S214016E20FDF768FE074620B16FF0910029B0BDE876
S214016E30F08F0146402208A827F0DEF840223946A6
S214016E4018A827F0D9F8DFF8B481DFF8B491C34663
S214016E500BF10F0ACDF800A0102208A95B46D9F85D
S214016E60000026F093F90022014608F1100808AF49
S214016E70914246D1CDF800A05B461022D9F8000019
S214016E8018A926F08CF94FF0000A834618AFD345AF
S214016E9041D1544B9845DAD10122514B1A704FF02B
S214016EA0810A4FF00008DFF85CB1A4F50627A7F5C4
S214016EB050635B095BF8232004F01F01CA40D20728
S214016EC03DD4494A52F82330CB40DB072AD5B8F1E6
S214016ED0000F08BFA0468123A7F6FF47B7FBF3F3D1
S214016EE003EBC313FF1A07F50624BAF1010A04F5EA
S214016EF05064DAD1039BBBB1B8F1000F14D04446FD
S214016F0019E057F8040BCDE90612FFF725FF079A9B
S214016F1006990132ACE757F8040BFFF739FF0AF17F
S214016F20010AB4E7039B13B96FF08B007EE7B8F153
S214016F30000F18BF4446349B00201C6076E7329B46
S214016F4013B10023329A13600EB10023336010236D
S214016F50DFF8AC9000932A4600232146D9F80000BA
S214016F6013F0E2FA60BB32992A68204BC9B99A42FB
S214016F7006D02146D9F8000013F06EFB0028D3D1C5
S214016F80D5E90223DDE90410834208BF8A42A2D173
S214016F90039B002BCFD06B68012BCCD16FF0840004
S214016FA044E7102032999A420860E2D1002EE7D0D9
S214016FB033462146D9F8000018AA13F009FB48B158
S214016FC00B4B9842D5D00B4B9842D2D00A4B9842E5
S214016FD0D6D029E7329A336812689B1A3360CFE716
S214016FE05D30002000710800A0190020105D175EBA
S214016FF0FFDF00F011E000F0FEDF00F0006D08009A
S21401700074330020B41900202DE9F04F87B0824672
S214017010894698461646DDF840B02AB1002B4FD077
S21401702040F26C739A424ED8BBF1010F4ED8002441
S21401703006F110073946012005941EF043F805466F
S214017040002846D021463A4626F0D6FF05ABCDE9C4
S214017050014300942B46012250464946FFF7BCFEE9
S214017060044680B110F18C0F08BF6FF08D043A46CC
S2140170700021284626F0C0FF28461EF005F82046C7
S21401708007B0BDE8F08F144BC5E902A92B60C5F81F
S21401709004B02EB13246414605F1100026F0E4FF59
S2140170A0059E0E483B462A463146006813F0A4F971
S2140170B018B93046FFF750FED9E76FF09104D6E7CE
S2140170C06FF08604DBE76FF09104D8E76FF0850474
S2140170D0D5E76FF08C04D2E7105D175E743300209D
S2140170E02DE9F0438DB08146DDE914780E4615464C
S2140170F01C469BB1B8F1000F05D16FF086063046ED
S2140171000DB0BDE8F083002FF7D0B7F1005FF4D3E0
S214017110C3F1005303F5C0339F42EED8102200217D
S21401712008A826F069FF002207AB029305AB01937E
S21401713006AB31460093484608ABCDE90522FFF77A
S2140171404BFE06460028DAD1059BA4B1AB4215D802
S21401715053EA0504D1D1069B0B48C8F800400094B9
S2140171603A46079900682B4413F0DEF9002818BF49
S2140171706FF09106C3E7AB42EDD2BEE75B1B9C42C4
S21401718028BF1C46E7E700BF7433002030B58DB03A
S2140171900C4605461022002108A826F02DFF0022E5
S2140171A007AB029305AB019306AB21460093284635
S2140171B008ABCDE90522FFF70FFE0446D8B9099BB7
S2140171C0012B1BD0079D104B2946186813F044FA73
S2140171D0B8B90122A5F506230C49A3F550635B094E
S2140171E005F01F00824051F823004240284641F82E
S2140171F02320FFF7CDFD20460DB030BD6FF084048F
S214017200F9E76FF09104F6E774330020B419002013
S2140172102DE9F04F93B00446DDE91E75DDE92068DF
S2140172209346DDE91C028A46DDF8889029B96FF09D
S2140172308604204613B0BDE8F08FBBF1000FF6D0F0
S2140172400FB9002DF3D108B9002AF0D116B9B8F15B
S214017250000FECD1B9F1000FE9D02C4A934251D17D
S2140172602388B3F5105F4DD12022002102A826F015
S214017270C3FE202200210AA826F0BEFE02A81CF0AA
S21401728020FE10B16FF09204D3E720465A465146CD
S2140172900AAB1DF03FF904460028CAD10A981DF032
S2140172A02DF904460028C4D115B9C9F80050C0E725
S2140172B0B74224D27B199E4221D24545B7D83946DA
S2140172C02A46304626F07EFE374615F00F0AAED126
S2140172D0CDE900762B4652460AA902A8FFF700F828
S2140172E007460028E1D042465146304626F084FE45
S2140172F0012FC9F800A0C5D16FF08B0499E7454569
S214017300E3D994E76FF0850493E700BF0044400497
S2140173102DE9F04FB3B00C4605460021164602A8EB
S214017320202298463C9FDDF8009126F065FE20223B
S21401733000210AA826F060FE2022002112A826F0CD
S2140173405BFE202200211AA826F056FE00213C22D0
S21401735023A8229126F050FE34B12EB127B13E9BD0
S21401736013B1B9F1000F05D16FF08604204633B092
S214017370BDE8F08FB4F800B0B4F802A00BF4E04317
S214017380B3F5804FF0D0384B384A2B4043F01063AA
S214017390934202D06FF08504E8E70AF10703B8EBE1
S2140173A0D30F4FEAD305DFD33F9B9D4258D81AA887
S2140173B01CF087FD10B16FF09204D7E7002301A9F6
S2140173C01AA80193FFF7E8FA0028F4D1019B284A8E
S2140173D023F07F4393420193DCD947F212139B4576
S2140173E0D8D1BAF5807FD5D1224B01370A933D9B80
S2140173F00D90023323F003030F93402317936B0082
S2140174000E971590139320464246314622AF02ABA3
S21401741016971DF07FF804460028A7D10C9B129002
S21401742043F400531AA80C931CF04BFD0028C2D15C
S21401743012AB0AAA02A91AA8FFF7BAF9064610B1B2
S214017440482891D1A6E72A4639463E9826F00CFEF2
S2140174503346BB550136402EFBD1C9F8005085E7AF
S2140174606FF0890482E700BF0000FFF60000020902
S2140174700102010020000080F8B5134642880C4640
S2140174800732072A4FEAD20101D0A1424DD1466800
S2140174900588C76820221846002126F0ADFD360A69
S2140174A00346002E44D1002C3FD041F20102954202
S2140174B005D0B5F5885F02D0B5F5905F02D15C6066
S2140174C0002011E0B5F5105F07D1182C03D0202C51
S2140174D001D0102C29D11C60F1E705F44F42B2F51A
S2140174E0824F02D06FF08500F8BDEAB2122AF9D1B8
S2140174F0202CF7D1104A25F0FF05B5F5E24F0260C2
S2140175000CD0B5F5824F10D14FF4005217F4705FCE
S21401751009D017F4864F04D09A60E3E74FF480420F
S214017520F4E742F480629A60CAE76FF08600DBE710
S2140175306FF08B00D8E700BF200000802DE9F04FE8
S2140175409A460388144603F44F42B3B0B2F5824F0D
S2140175500F46DDF8F89002D06FF0850056E011B9BD
S2140175606FF0860052E0002CFAD0B9F1000FF7D088
S214017570DAB2122AF0D123F0FF03B3F5E24F34D189
S2140175804388C9F800305BBBE300C9F80030B3F5A7
S214017590807FE1D10023184655493D19214411F851
S2140175A0016D15F8012D1043921B0CBF4FF0FF36ED
S2140175B00026AF4203EA060343EA0203EFD100289E
S2140175C0CED0002BCCDA3C9B9C4200F28E80224629
S2140175D03946504626F048FD3D9B00201C6015E0CC
S2140175E0DA1DB4EBD20FD2D0BAE7B3F5824F79D118
S2140175F00B78042BB4D12022002101A826F0FCFC34
S21401760001A81CF05EFC20B16FF0920033B0BDE81B
S214017610F08F0090694601A8FFF7BEF90028F3D164
S214017620009B344A23F07F43934295D94FF00008DC
S2140176303E22414622A8CDF8848026F0DDFC0123B7
S2140176404FF0420B2022414609A88DF88430651E72
S21401765026F0D2FC7B1C2022414611A80D9321AEB8
S2140176600E9526F0C9FC2022414619A81596CDF89C
S21401767058B026F0C1FCEA005208B2F5807FCDE989
S2140176801D6BC9F800200BD003D8E02A3FF464AF85
S21401769066E7B2F5C07F3FF45FAFB2F5047FF5E76A
S2140176A0154B09AA099311934FF400530B934FF40A
S2140176B080431393402311A91A9301A819ABFFF72E
S2140176C077F8D9F800300733DB085A0033B1531E78
S2140176D0013B86F8008006F10106F9D200283FF446
S2140176E072AF3DE76FF0960090E76FF089008DE787
S2140176F0E4FF030001020100200000802DE9F04FA5
S2140177008FB0DDF8608081460C4692469B461A9FF4
S214017710B8F1000F05D16FF0860420460FB0BDE822
S214017720F08F002FF7D00028F5D02022002106A8E0
S21401773026F062FC06A81CF0C4FB10B16FF09204A0
S214017740EBE714F47C1FC4F305452AD0102DE2D8CC
S214017750199B9D4233D81D4B24F47E149C4231D193
S214017760002302AECDE90233CDE9043352465B462F
S2140177704946009606A8FEF70BFE044698B92A4627
S2140177803146404626F070FC234633550134102C12
S214017790FBD100243D6006A81CF09DFB0028BCD050
S2140177A0CCE71025D4E7212806D0012814BF6FF0B6
S2140177B092046FF08B04EEE76FF08604EBE76FF050
S2140177C08904AAE76FF08504A7E700BF0002C0039B
S2140177D070B50E461446054610B96FF0860070BDAA
S2140177E00029FAD03822002126F006FC094B24F4A1
S2140177F07E129A420AD13388B3F5105F06D1C4F3DC
S2140178000543102BE9D800202C60E8E76FF08500CF
S214017810E5E700BF0002C003F0B50F4616461D4659
S21401782004468BB088B302B97BBB2022002102A894
S21401783026F0E2FB02A81CF044FB20B16FF0920494
S21401784020460BB0F0BD2368114A23F47E13934201
S21401785015D135B9002402A81CF03DFB0028EFD055
S214017860ECE733463A46009502A9201DFEF772FE64
S214017870012807D00028EDD06FF09204EBE76FF0F7
S2140178808804E8E76FF08B04E5E76FF08604D7E736
S2140178900002C0032DE9F0418CB0884616461D460D
S2140178A00446129F002840D0002A3ED0002B3CD030
S2140178B0002F3AD0102B036828BF102513F47C1F25
S2140178C0C3F3054202D0954228BF15461A4A23F44F
